2026-02-28 10:01:00.000 OUT session [8=FIX.4.2^A9=065^A35=F^A11=CXL-1^A41=ORD-1^A10=231] sent
unrelated line
2026-02-28 10:01:01.000 IN session [8=FIX.4.2^A9=075^A35=9^A11=CXL-1^A39=4^A10=777] recv
