2026-02-28 10:00:00.101 INFO IN [8=FIX.4.2^A9=112^A35=D^A34=1^A49=BUY^A56=SELL^A11=ORD-1001^A55=AAPL^A54=1^A38=100^A40=2^A44=182.55^A60=20260228-10:00:00.000^A10=128^A]
noise before next message
2026-02-28 10:00:01.220 DEBUG IN 8=FIX.4.2|9=125|35=G|34=2|49=BUY|56=SELL|11=ORD-1001-R|41=ORD-1001|55=AAPL|54=1|38=150|40=2|44=183.10|60=20260228-10:00:01.100|10=044|
random text with no FIX payload
2026-02-28 10:00:02.450 INFO IN [8=FIX.4.2^A9=108^A35=F^A34=3^A49=BUY^A56=SELL^A11=ORD-1002-CXL^A41=ORD-1002^A55=MSFT^A54=2^A60=20260228-10:00:02.400^A10=201^A]
